{
  "_format": "hh-sol-artifact-1",
  "contractName": "Auction",
  "sourceName": "contracts_src/auction/Auction.sol",
  "abi": [
    {
      "inputs": [
        {
          "internalType": "address",
          "name": "_x402CreditAddress",
          "type": "address"
        }
      ],
      "stateMutability": "nonpayable",
      "type": "constructor"
    },
    {
      "inputs": [
        {
          "internalType": "address",
          "name": "owner",
          "type": "address"
        }
      ],
      "name": "OwnableInvalidOwner",
      "type": "error"
    },
    {
      "inputs": [
        {
          "internalType": "address",
          "name": "account",
          "type": "address"
        }
      ],
      "name": "OwnableUnauthorizedAccount",
      "type": "error"
    },
    {
      "inputs": [],
      "name": "ReentrancyGuardReentrantCall",
      "type": "error"
    },
    {
      "anonymous": false,
      "inputs": [
        {
          "indexed": true,
          "internalType": "uint256",
          "name": "auctionId",
          "type": "uint256"
        },
        {
          "indexed": true,
          "internalType": "address",
          "name": "borrower",
          "type": "address"
        },
        {
          "indexed": false,
          "internalType": "uint256",
          "name": "amount",
          "type": "uint256"
        },
        {
          "indexed": false,
          "internalType": "uint256",
          "name": "endTime",
          "type": "uint256"
        }
      ],
      "name": "AuctionCreated",
      "type": "event"
    },
    {
      "anonymous": false,
      "inputs": [
        {
          "indexed": true,
          "internalType": "uint256",
          "name": "auctionId",
          "type": "uint256"
        },
        {
          "indexed": true,
          "internalType": "address",
          "name": "winningLender",
          "type": "address"
        }
      ],
      "name": "AuctionFinalized",
      "type": "event"
    },
    {
      "anonymous": false,
      "inputs": [
        {
          "indexed": true,
          "internalType": "uint256",
          "name": "auctionId",
          "type": "uint256"
        },
        {
          "indexed": false,
          "internalType": "uint256",
          "name": "creditLineId",
          "type": "uint256"
        }
      ],
      "name": "AuctionSettled",
      "type": "event"
    },
    {
      "anonymous": false,
      "inputs": [
        {
          "indexed": true,
          "internalType": "uint256",
          "name": "auctionId",
          "type": "uint256"
        },
        {
          "indexed": true,
          "internalType": "address",
          "name": "lender",
          "type": "address"
        },
        {
          "indexed": false,
          "internalType": "uint16",
          "name": "rateBps",
          "type": "uint16"
        },
        {
          "indexed": false,
          "internalType": "uint256",
          "name": "limit",
          "type": "uint256"
        }
      ],
      "name": "BidPlaced",
      "type": "event"
    },
    {
      "anonymous": false,
      "inputs": [
        {
          "indexed": true,
          "internalType": "address",
          "name": "previousOwner",
          "type": "address"
        },
        {
          "indexed": true,
          "internalType": "address",
          "name": "newOwner",
          "type": "address"
        }
      ],
      "name": "OwnershipTransferred",
      "type": "event"
    },
    {
      "inputs": [],
      "name": "auctionCounter",
      "outputs": [
        {
          "internalType": "uint256",
          "name": "",
          "type": "uint256"
        }
      ],
      "stateMutability": "view",
      "type": "function"
    },
    {
      "inputs": [
        {
          "internalType": "uint256",
          "name": "",
          "type": "uint256"
        }
      ],
      "name": "auctions",
      "outputs": [
        {
          "internalType": "address",
          "name": "borrower",
          "type": "address"
        },
        {
          "internalType": "uint256",
          "name": "amount",
          "type": "uint256"
        },
        {
          "internalType": "uint256",
          "name": "duration",
          "type": "uint256"
        },
        {
          "internalType": "uint256",
          "name": "endTime",
          "type": "uint256"
        },
        {
          "internalType": "enum Auction.AuctionStatus",
          "name": "status",
          "type": "uint8"
        },
        {
          "internalType": "uint256",
          "name": "createdAt",
          "type": "uint256"
        }
      ],
      "stateMutability": "view",
      "type": "function"
    },
    {
      "inputs": [
        {
          "internalType": "uint256",
          "name": "",
          "type": "uint256"
        },
        {
          "internalType": "uint256",
          "name": "",
          "type": "uint256"
        }
      ],
      "name": "bids",
      "outputs": [
        {
          "internalType": "address",
          "name": "lender",
          "type": "address"
        },
        {
          "internalType": "uint16",
          "name": "rateBps",
          "type": "uint16"
        },
        {
          "internalType": "uint256",
          "name": "limit",
          "type": "uint256"
        },
        {
          "internalType": "uint256",
          "name": "timestamp",
          "type": "uint256"
        },
        {
          "internalType": "bool",
          "name": "isWinning",
          "type": "bool"
        }
      ],
      "stateMutability": "view",
      "type": "function"
    },
    {
      "inputs": [
        {
          "internalType": "uint256",
          "name": "auctionId",
          "type": "uint256"
        }
      ],
      "name": "cancelAuction",
      "outputs": [],
      "stateMutability": "nonpayable",
      "type": "function"
    },
    {
      "inputs": [
        {
          "internalType": "uint256",
          "name": "amount",
          "type": "uint256"
        },
        {
          "internalType": "uint256",
          "name": "duration",
          "type": "uint256"
        },
        {
          "internalType": "uint256",
          "name": "biddingDuration",
          "type": "uint256"
        }
      ],
      "name": "createAuction",
      "outputs": [
        {
          "internalType": "uint256",
          "name": "",
          "type": "uint256"
        }
      ],
      "stateMutability": "nonpayable",
      "type": "function"
    },
    {
      "inputs": [
        {
          "internalType": "uint256",
          "name": "auctionId",
          "type": "uint256"
        }
      ],
      "name": "finalizeAuction",
      "outputs": [],
      "stateMutability": "nonpayable",
      "type": "function"
    },
    {
      "inputs": [
        {
          "internalType": "uint256",
          "name": "auctionId",
          "type": "uint256"
        }
      ],
      "name": "getAuction",
      "outputs": [
        {
          "components": [
            {
              "internalType": "address",
              "name": "borrower",
              "type": "address"
            },
            {
              "internalType": "uint256",
              "name": "amount",
              "type": "uint256"
            },
            {
              "internalType": "uint256",
              "name": "duration",
              "type": "uint256"
            },
            {
              "internalType": "uint256",
              "name": "endTime",
              "type": "uint256"
            },
            {
              "internalType": "enum Auction.AuctionStatus",
              "name": "status",
              "type": "uint8"
            },
            {
              "internalType": "uint256",
              "name": "createdAt",
              "type": "uint256"
            }
          ],
          "internalType": "struct Auction.AuctionData",
          "name": "",
          "type": "tuple"
        }
      ],
      "stateMutability": "view",
      "type": "function"
    },
    {
      "inputs": [
        {
          "internalType": "uint256",
          "name": "auctionId",
          "type": "uint256"
        }
      ],
      "name": "getBids",
      "outputs": [
        {
          "components": [
            {
              "internalType": "address",
              "name": "lender",
              "type": "address"
            },
            {
              "internalType": "uint16",
              "name": "rateBps",
              "type": "uint16"
            },
            {
              "internalType": "uint256",
              "name": "limit",
              "type": "uint256"
            },
            {
              "internalType": "uint256",
              "name": "timestamp",
              "type": "uint256"
            },
            {
              "internalType": "bool",
              "name": "isWinning",
              "type": "bool"
            }
          ],
          "internalType": "struct Auction.Bid[]",
          "name": "",
          "type": "tuple[]"
        }
      ],
      "stateMutability": "view",
      "type": "function"
    },
    {
      "inputs": [],
      "name": "owner",
      "outputs": [
        {
          "internalType": "address",
          "name": "",
          "type": "address"
        }
      ],
      "stateMutability": "view",
      "type": "function"
    },
    {
      "inputs": [
        {
          "internalType": "uint256",
          "name": "auctionId",
          "type": "uint256"
        },
        {
          "internalType": "uint16",
          "name": "rateBps",
          "type": "uint16"
        },
        {
          "internalType": "uint256",
          "name": "limit",
          "type": "uint256"
        }
      ],
      "name": "placeBid",
      "outputs": [],
      "stateMutability": "nonpayable",
      "type": "function"
    },
    {
      "inputs": [],
      "name": "renounceOwnership",
      "outputs": [],
      "stateMutability": "nonpayable",
      "type": "function"
    },
    {
      "inputs": [
        {
          "internalType": "uint256",
          "name": "auctionId",
          "type": "uint256"
        }
      ],
      "name": "settleAuction",
      "outputs": [
        {
          "internalType": "uint256",
          "name": "",
          "type": "uint256"
        }
      ],
      "stateMutability": "nonpayable",
      "type": "function"
    },
    {
      "inputs": [
        {
          "internalType": "address",
          "name": "newOwner",
          "type": "address"
        }
      ],
      "name": "transferOwnership",
      "outputs": [],
      "stateMutability": "nonpayable",
      "type": "function"
    },
    {
      "inputs": [
        {
          "internalType": "uint256",
          "name": "",
          "type": "uint256"
        }
      ],
      "name": "winningBid",
      "outputs": [
        {
          "internalType": "address",
          "name": "",
          "type": "address"
        }
      ],
      "stateMutability": "view",
      "type": "function"
    },
    {
      "inputs": [],
      "name": "x402CreditAddress",
      "outputs": [
        {
          "internalType": "address",
          "name": "",
          "type": "address"
        }
      ],
      "stateMutability": "view",
      "type": "function"
    }
  ],
  "bytecode": "0x608060405234801561001057600080fd5b5060405161149a38038061149a83398101604081905261002f916100d8565b338061005557604051631e4fbdf760e01b81526000600482015260240160405180910390fd5b61005e81610088565b5060018055600680546001600160a01b0319166001600160a01b0392909216919091179055610108565b600080546001600160a01b038381166001600160a01b0319831681178455604051919092169283917f8be0079c531659141344cd1fd0a4f28419497f9722a3daafe3b4186f6b6457e09190a35050565b6000602082840312156100ea57600080fd5b81516001600160a01b038116811461010157600080fd5b9392505050565b611383806101176000396000f3fe608060405234801561001057600080fd5b50600436106100f45760003560e01c80637b3c4baa11610097578063cda4beef11610066578063cda4beef14610282578063d4ac9b8c14610295578063e8083863146102be578063f2fde38b146102d157600080fd5b80637b3c4baa1461020b5780638da5cb5b1461025557806396b5a75514610266578063a7e766441461027957600080fd5b8063571a26a0116100d3578063571a26a01461016a578063715018a6146101ce578063728ca130146101d857806378bd7935146101eb57600080fd5b8062f6c633146100f9578063131d9a27146101295780632e99361114610149575b600080fd5b60065461010c906001600160a01b031681565b6040516001600160a01b0390911681526020015b60405180910390f35b61013c61013736600461108d565b6102e4565b60405161012091906110a6565b61015c61015736600461108d565b610397565b604051908152602001610120565b6101bc61017836600461108d565b60026020819052600091825260409091208054600182015492820154600383015460048401546005909401546001600160a01b0390931694939192909160ff169086565b6040516101209695949392919061115b565b6101d6610755565b005b6101d66101e636600461119e565b610769565b6101fe6101f936600461108d565b61095c565b60405161012091906111dd565b61021e61021936600461122e565b6109f2565b604080516001600160a01b03909616865261ffff90941660208601529284019190915260608301521515608082015260a001610120565b6000546001600160a01b031661010c565b6101d661027436600461108d565b610a52565b61015c60055481565b61015c610290366004611250565b610b19565b61010c6102a336600461108d565b6004602052600090815260409020546001600160a01b031681565b6101d66102cc36600461108d565b610c53565b6101d66102df36600461127c565b610f58565b606060036000838152602001908152602001600020805480602002602001604051908101604052809291908181526020016000905b8282101561038c5760008481526020908190206040805160a0810182526004860290920180546001600160a01b0381168452600160a01b900461ffff168385015260018082015492840192909252600281015460608401526003015460ff16151560808301529083529092019101610319565b505050509050919050565b60006103a1610f96565b600160008381526002602052604090206004015460ff1660038111156103c9576103c9611123565b146104135760405162461bcd60e51b8152602060048201526015602482015274105d58dd1a5bdb881b9bdd08199a5b985b1a5e9959605a1b60448201526064015b60405180910390fd5b6000828152600260205260409020546001600160a01b031633146104795760405162461bcd60e51b815260206004820152601860248201527f4f6e6c7920626f72726f7765722063616e20736574746c650000000000000000604482015260640161040a565b6000828152600260208181526040808420815160c08101835281546001600160a01b03168152600182015493810193909352928301549082015260038083015460608301526004830154919291608084019160ff909116908111156104e0576104e0611123565b60038111156104f1576104f1611123565b815260059190910154602091820152600085815260048252604080822054815160a08101835283815293840183905290830182905260608301829052608083018290529293506001600160a01b03909216915b60008681526003602052604090205481101561062657600086815260036020526040902080548290811061057a5761057a6112ac565b600091825260209091206003600490920201015460ff161561061e5760008681526003602052604090208054829081106105b6576105b66112ac565b60009182526020918290206040805160a081018252600490930290910180546001600160a01b038116845261ffff600160a01b90910416938301939093526001830154908201526002820154606082015260039091015460ff16151560808201529150610626565b600101610544565b5060065483516040808401516020850151918701516001600160a01b03909416936000938593630d7774e99391928992919061066290426112d8565b6040516001600160e01b031960e088901b1681526001600160a01b039586166004820152949093166024850152604484019190915261ffff166064830152608482015260a4016020604051808303816000875af11580156106c7573d6000803e3d6000fd5b505050506040513d601f19601f820116820180604052508101906106eb91906112f1565b600088815260026020818152604092839020600401805460ff1916909217909155905182815291925088917f55efb9848a7b2ced6c81d35dffde0fd3c282f34aadd59d7150e313736dbf0ab6910160405180910390a294505050505061075060018055565b919050565b61075d610fc0565b6107676000610fed565b565b60008381526002602052604081206004015460ff16600381111561078f5761078f611123565b146107ac5760405162461bcd60e51b815260040161040a9061130a565b60008381526002602052604090206003015442106107fc5760405162461bcd60e51b815260206004820152600d60248201526c105d58dd1a5bdb88195b991959609a1b604482015260640161040a565b600083815260026020526040902054336001600160a01b03909116036108645760405162461bcd60e51b815260206004820152601960248201527f43616e6e6f7420626964206f6e206f776e2061756374696f6e00000000000000604482015260640161040a565b6000838152600360208181526040808420815160a0810183523380825261ffff808a168387019081528386018a81524260608601908152608086018b8152875460018181018a55988d5299909b209551600490990290950180549251909316600160a01b026001600160b01b03199092166001600160a01b039890981697909717178155945192850192909255516002840155935191909201805491151560ff199092169190911790555184907fde7ac78bfade1166618b9197d01b4be530fce5d069770ba4d05a204470a94b179061094f908690869061ffff929092168252602082015260400190565b60405180910390a3505050565b61096461103d565b600082815260026020818152604092839020835160c08101855281546001600160a01b03168152600182015492810192909252918201549281019290925260038082015460608401526004820154608084019160ff909116908111156109cc576109cc611123565b60038111156109dd576109dd611123565b81526020016005820154815250509050919050565b60036020528160005260406000208181548110610a0e57600080fd5b600091825260209091206004909102018054600182015460028301546003909301546001600160a01b0383169550600160a01b90920461ffff169350919060ff1685565b6000818152600260205260409020546001600160a01b03163314610ab85760405162461bcd60e51b815260206004820152601860248201527f4f6e6c7920626f72726f7765722063616e2063616e63656c0000000000000000604482015260640161040a565b60008181526002602052604081206004015460ff166003811115610ade57610ade611123565b14610afb5760405162461bcd60e51b815260040161040a9061130a565b6000908152600260205260409020600401805460ff19166003179055565b6005805460009182919082610b2d83611334565b9190505590506040518060c00160405280336001600160a01b031681526020018681526020018581526020018442610b6591906112d8565b8152602001600081524260209182015260008381526002808352604091829020845181546001600160a01b0319166001600160a01b03909116178155928401516001808501919091559184015190830155606083015160038084019190915560808401516004840180549193909260ff19909216918490811115610beb57610beb611123565b021790555060a0919091015160059091015560008181526002602090815260409182902060030154825188815291820152339183917fc9050d42180a61cb0d9ebb8ad118b62fe6eab12cf12ff752c4a0cc7da9ddf627910160405180910390a3949350505050565b60008181526002602052604081206004015460ff166003811115610c7957610c79611123565b14610c965760405162461bcd60e51b815260040161040a9061130a565b600081815260026020526040902060030154421015610cee5760405162461bcd60e51b815260206004820152601460248201527341756374696f6e207374696c6c2061637469766560601b604482015260640161040a565b600081815260036020526040902054610d335760405162461bcd60e51b81526020600482015260076024820152664e6f206269647360c81b604482015260640161040a565b600081815260036020526040812080548291908290610d5457610d546112ac565b60009182526020918290206040805160a081018252600490930290910180546001600160a01b038116845261ffff600160a01b9091041693830193909352600180840154918301919091526002830154606083015260039092015460ff161515608082015291505b600084815260036020526040902054811015610ea1576000848152600360205260408120805483908110610df257610df26112ac565b60009182526020918290206040805160a081018252600490930290910180546001600160a01b038116845261ffff600160a01b90910481168486018190526001830154938501939093526002820154606085015260039091015460ff16151560808401529286015191935091161180610e8c5750826020015161ffff16816020015161ffff16148015610e8c575082604001518160400151115b15610e98578092508193505b50600101610dbc565b50600083815260036020526040902080546001919084908110610ec657610ec66112ac565b60009182526020808320600492830201600301805460ff199081169515159590951790558451878452828252604080852080546001600160a01b0319166001600160a01b03938416179055600290925281842090920180549094166001179093558351925192169185917f95b73f79c6d7b09d4dd9a323589aec50a424621f53a70ece1cc21aa75554b51991a3505050565b610f60610fc0565b6001600160a01b038116610f8a57604051631e4fbdf760e01b81526000600482015260240161040a565b610f9381610fed565b50565b600260015403610fb957604051633ee5aeb560e01b815260040160405180910390fd5b6002600155565b6000546001600160a01b031633146107675760405163118cdaa760e01b815233600482015260240161040a565b600080546001600160a01b038381166001600160a01b0319831681178455604051919092169283917f8be0079c531659141344cd1fd0a4f28419497f9722a3daafe3b4186f6b6457e09190a35050565b6040518060c0016040528060006001600160a01b031681526020016000815260200160008152602001600081526020016000600381111561108057611080611123565b8152602001600081525090565b60006020828403121561109f57600080fd5b5035919050565b602080825282518282018190526000919060409081850190868401855b8281101561111657815180516001600160a01b031685528681015161ffff168786015285810151868601526060808201519086015260809081015115159085015260a090930192908501906001016110c3565b5091979650505050505050565b634e487b7160e01b600052602160045260246000fd5b6004811061115757634e487b7160e01b600052602160045260246000fd5b9052565b6001600160a01b038716815260208101869052604081018590526060810184905260c0810161118d6080830185611139565b8260a0830152979650505050505050565b6000806000606084860312156111b357600080fd5b83359250602084013561ffff811681146111cc57600080fd5b929592945050506040919091013590565b81516001600160a01b0316815260208083015190820152604080830151908201526060808301519082015260808083015160c083019161121f90840182611139565b5060a092830151919092015290565b6000806040838503121561124157600080fd5b50508035926020909101359150565b60008060006060848603121561126557600080fd5b505081359360208301359350604090920135919050565b60006020828403121561128e57600080fd5b81356001600160a01b03811681146112a557600080fd5b9392505050565b634e487b7160e01b600052603260045260246000fd5b634e487b7160e01b600052601160045260246000fd5b808201808211156112eb576112eb6112c2565b92915050565b60006020828403121561130357600080fd5b5051919050565b60208082526010908201526f20bab1ba34b7b7103737ba1037b832b760811b604082015260600190565b600060018201611346576113466112c2565b506001019056fea2646970667358221220e4414cecc3d3f1448cefb2f96707706156859c7cfac1cb6e951a3c756af60bc164736f6c63430008180033",
  "linkReferences": {},
  "deployedLinkReferences": {}
}