{
  "_format": "hh-sol-artifact-1",
  "contractName": "RFQ",
  "sourceName": "contracts_src/rfq/RFQ.sol",
  "abi": [
    {
      "inputs": [
        {
          "internalType": "address",
          "name": "_x402CreditAddress",
          "type": "address"
        }
      ],
      "stateMutability": "nonpayable",
      "type": "constructor"
    },
    {
      "inputs": [
        {
          "internalType": "address",
          "name": "owner",
          "type": "address"
        }
      ],
      "name": "OwnableInvalidOwner",
      "type": "error"
    },
    {
      "inputs": [
        {
          "internalType": "address",
          "name": "account",
          "type": "address"
        }
      ],
      "name": "OwnableUnauthorizedAccount",
      "type": "error"
    },
    {
      "inputs": [],
      "name": "ReentrancyGuardReentrantCall",
      "type": "error"
    },
    {
      "anonymous": false,
      "inputs": [
        {
          "indexed": true,
          "internalType": "address",
          "name": "previousOwner",
          "type": "address"
        },
        {
          "indexed": true,
          "internalType": "address",
          "name": "newOwner",
          "type": "address"
        }
      ],
      "name": "OwnershipTransferred",
      "type": "event"
    },
    {
      "anonymous": false,
      "inputs": [
        {
          "indexed": true,
          "internalType": "uint256",
          "name": "rfqId",
          "type": "uint256"
        },
        {
          "indexed": true,
          "internalType": "address",
          "name": "lender",
          "type": "address"
        },
        {
          "indexed": false,
          "internalType": "uint256",
          "name": "quoteIndex",
          "type": "uint256"
        }
      ],
      "name": "QuoteAccepted",
      "type": "event"
    },
    {
      "anonymous": false,
      "inputs": [
        {
          "indexed": true,
          "internalType": "uint256",
          "name": "rfqId",
          "type": "uint256"
        },
        {
          "indexed": true,
          "internalType": "address",
          "name": "lender",
          "type": "address"
        },
        {
          "indexed": false,
          "internalType": "uint16",
          "name": "rateBps",
          "type": "uint16"
        },
        {
          "indexed": false,
          "internalType": "uint256",
          "name": "limit",
          "type": "uint256"
        }
      ],
      "name": "QuoteSubmitted",
      "type": "event"
    },
    {
      "anonymous": false,
      "inputs": [
        {
          "indexed": true,
          "internalType": "uint256",
          "name": "rfqId",
          "type": "uint256"
        },
        {
          "indexed": true,
          "internalType": "address",
          "name": "borrower",
          "type": "address"
        },
        {
          "indexed": false,
          "internalType": "uint256",
          "name": "amount",
          "type": "uint256"
        },
        {
          "indexed": false,
          "internalType": "uint256",
          "name": "duration",
          "type": "uint256"
        }
      ],
      "name": "RFQCreated",
      "type": "event"
    },
    {
      "anonymous": false,
      "inputs": [
        {
          "indexed": true,
          "internalType": "uint256",
          "name": "rfqId",
          "type": "uint256"
        },
        {
          "indexed": false,
          "internalType": "uint256",
          "name": "creditLineId",
          "type": "uint256"
        }
      ],
      "name": "RFQExecuted",
      "type": "event"
    },
    {
      "inputs": [
        {
          "internalType": "uint256",
          "name": "rfqId",
          "type": "uint256"
        },
        {
          "internalType": "uint256",
          "name": "quoteIndex",
          "type": "uint256"
        }
      ],
      "name": "acceptQuote",
      "outputs": [],
      "stateMutability": "nonpayable",
      "type": "function"
    },
    {
      "inputs": [
        {
          "internalType": "uint256",
          "name": "",
          "type": "uint256"
        }
      ],
      "name": "acceptedQuote",
      "outputs": [
        {
          "internalType": "uint256",
          "name": "",
          "type": "uint256"
        }
      ],
      "stateMutability": "view",
      "type": "function"
    },
    {
      "inputs": [
        {
          "internalType": "uint256",
          "name": "rfqId",
          "type": "uint256"
        }
      ],
      "name": "cancelRFQ",
      "outputs": [],
      "stateMutability": "nonpayable",
      "type": "function"
    },
    {
      "inputs": [
        {
          "internalType": "uint256",
          "name": "amount",
          "type": "uint256"
        },
        {
          "internalType": "uint256",
          "name": "duration",
          "type": "uint256"
        },
        {
          "internalType": "uint8",
          "name": "collateralType",
          "type": "uint8"
        },
        {
          "internalType": "string",
          "name": "flowDescription",
          "type": "string"
        }
      ],
      "name": "createRFQ",
      "outputs": [
        {
          "internalType": "uint256",
          "name": "",
          "type": "uint256"
        }
      ],
      "stateMutability": "nonpayable",
      "type": "function"
    },
    {
      "inputs": [
        {
          "internalType": "uint256",
          "name": "rfqId",
          "type": "uint256"
        }
      ],
      "name": "executeRFQ",
      "outputs": [
        {
          "internalType": "uint256",
          "name": "",
          "type": "uint256"
        }
      ],
      "stateMutability": "nonpayable",
      "type": "function"
    },
    {
      "inputs": [
        {
          "internalType": "uint256",
          "name": "rfqId",
          "type": "uint256"
        }
      ],
      "name": "getQuotes",
      "outputs": [
        {
          "components": [
            {
              "internalType": "address",
              "name": "lender",
              "type": "address"
            },
            {
              "internalType": "uint16",
              "name": "rateBps",
              "type": "uint16"
            },
            {
              "internalType": "uint256",
              "name": "limit",
              "type": "uint256"
            },
            {
              "internalType": "uint256",
              "name": "collateralRequired",
              "type": "uint256"
            },
            {
              "internalType": "uint256",
              "name": "submittedAt",
              "type": "uint256"
            },
            {
              "internalType": "bool",
              "name": "accepted",
              "type": "bool"
            }
          ],
          "internalType": "struct RFQ.Quote[]",
          "name": "",
          "type": "tuple[]"
        }
      ],
      "stateMutability": "view",
      "type": "function"
    },
    {
      "inputs": [
        {
          "internalType": "uint256",
          "name": "rfqId",
          "type": "uint256"
        }
      ],
      "name": "getRFQ",
      "outputs": [
        {
          "components": [
            {
              "internalType": "address",
              "name": "borrower",
              "type": "address"
            },
            {
              "internalType": "uint256",
              "name": "amount",
              "type": "uint256"
            },
            {
              "internalType": "uint256",
              "name": "duration",
              "type": "uint256"
            },
            {
              "internalType": "uint8",
              "name": "collateralType",
              "type": "uint8"
            },
            {
              "internalType": "string",
              "name": "flowDescription",
              "type": "string"
            },
            {
              "internalType": "enum RFQ.RFQStatus",
              "name": "status",
              "type": "uint8"
            },
            {
              "internalType": "uint256",
              "name": "createdAt",
              "type": "uint256"
            }
          ],
          "internalType": "struct RFQ.RFQData",
          "name": "",
          "type": "tuple"
        }
      ],
      "stateMutability": "view",
      "type": "function"
    },
    {
      "inputs": [],
      "name": "owner",
      "outputs": [
        {
          "internalType": "address",
          "name": "",
          "type": "address"
        }
      ],
      "stateMutability": "view",
      "type": "function"
    },
    {
      "inputs": [
        {
          "internalType": "uint256",
          "name": "",
          "type": "uint256"
        },
        {
          "internalType": "uint256",
          "name": "",
          "type": "uint256"
        }
      ],
      "name": "quotes",
      "outputs": [
        {
          "internalType": "address",
          "name": "lender",
          "type": "address"
        },
        {
          "internalType": "uint16",
          "name": "rateBps",
          "type": "uint16"
        },
        {
          "internalType": "uint256",
          "name": "limit",
          "type": "uint256"
        },
        {
          "internalType": "uint256",
          "name": "collateralRequired",
          "type": "uint256"
        },
        {
          "internalType": "uint256",
          "name": "submittedAt",
          "type": "uint256"
        },
        {
          "internalType": "bool",
          "name": "accepted",
          "type": "bool"
        }
      ],
      "stateMutability": "view",
      "type": "function"
    },
    {
      "inputs": [],
      "name": "renounceOwnership",
      "outputs": [],
      "stateMutability": "nonpayable",
      "type": "function"
    },
    {
      "inputs": [],
      "name": "rfqCounter",
      "outputs": [
        {
          "internalType": "uint256",
          "name": "",
          "type": "uint256"
        }
      ],
      "stateMutability": "view",
      "type": "function"
    },
    {
      "inputs": [
        {
          "internalType": "uint256",
          "name": "",
          "type": "uint256"
        }
      ],
      "name": "rfqs",
      "outputs": [
        {
          "internalType": "address",
          "name": "borrower",
          "type": "address"
        },
        {
          "internalType": "uint256",
          "name": "amount",
          "type": "uint256"
        },
        {
          "internalType": "uint256",
          "name": "duration",
          "type": "uint256"
        },
        {
          "internalType": "uint8",
          "name": "collateralType",
          "type": "uint8"
        },
        {
          "internalType": "string",
          "name": "flowDescription",
          "type": "string"
        },
        {
          "internalType": "enum RFQ.RFQStatus",
          "name": "status",
          "type": "uint8"
        },
        {
          "internalType": "uint256",
          "name": "createdAt",
          "type": "uint256"
        }
      ],
      "stateMutability": "view",
      "type": "function"
    },
    {
      "inputs": [
        {
          "internalType": "uint256",
          "name": "rfqId",
          "type": "uint256"
        },
        {
          "internalType": "uint16",
          "name": "rateBps",
          "type": "uint16"
        },
        {
          "internalType": "uint256",
          "name": "limit",
          "type": "uint256"
        },
        {
          "internalType": "uint256",
          "name": "collateralRequired",
          "type": "uint256"
        }
      ],
      "name": "submitQuote",
      "outputs": [],
      "stateMutability": "nonpayable",
      "type": "function"
    },
    {
      "inputs": [
        {
          "internalType": "address",
          "name": "newOwner",
          "type": "address"
        }
      ],
      "name": "transferOwnership",
      "outputs": [],
      "stateMutability": "nonpayable",
      "type": "function"
    },
    {
      "inputs": [],
      "name": "x402CreditAddress",
      "outputs": [
        {
          "internalType": "address",
          "name": "",
          "type": "address"
        }
      ],
      "stateMutability": "view",
      "type": "function"
    }
  ],
  "bytecode": "0x608060405234801561001057600080fd5b5060405161175238038061175283398101604081905261002f916100d8565b338061005557604051631e4fbdf760e01b81526000600482015260240160405180910390fd5b61005e81610088565b5060018055600680546001600160a01b0319166001600160a01b0392909216919091179055610108565b600080546001600160a01b038381166001600160a01b0319831681178455604051919092169283917f8be0079c531659141344cd1fd0a4f28419497f9722a3daafe3b4186f6b6457e09190a35050565b6000602082840312156100ea57600080fd5b81516001600160a01b038116811461010157600080fd5b9392505050565b61163b806101176000396000f3fe608060405234801561001057600080fd5b50600436106100f45760003560e01c8063c5f4473b11610097578063d049bfef11610066578063d049bfef1461023c578063dbb6b6a41461025c578063f2fde38b1461026f578063f8b1fe971461028257600080fd5b8063c5f4473b146101a1578063ca7b31d4146101b4578063cbb11560146101da578063cf6d5ee21461022957600080fd5b80636d34cd35116100d35780636d34cd351461016a578063715018a6146101735780638da5cb5b1461017d578063bc0ef26b1461018e57600080fd5b8062f6c633146100f9578063193c139a146101295780631f56ded914610149575b600080fd5b60065461010c906001600160a01b031681565b6040516001600160a01b0390911681526020015b60405180910390f35b61013c6101373660046110a6565b6102a2565b604051610120919061113d565b61015c6101573660046110a6565b610400565b604051908152602001610120565b61015c60055481565b61017b6107bf565b005b6000546001600160a01b031661010c565b61017b61019c3660046110a6565b6107d3565b61017b6101af3660046111b6565b61089a565b6101c76101c23660046110a6565b610aea565b60405161012097969594939291906111d8565b6101ed6101e83660046111b6565b610bc3565b604080516001600160a01b03909716875261ffff90951660208701529385019290925260608401526080830152151560a082015260c001610120565b61015c610237366004611245565b610c2a565b61024f61024a3660046110a6565b610d65565b6040516101209190611322565b61017b61026a3660046113a9565b610e22565b61017b61027d3660046113ed565b610fc1565b61015c6102903660046110a6565b60046020526000908152604090205481565b6040805160e0810182526000808252602082018190529181018290526060808201839052608082015260a0810182905260c0810191909152600082815260026020818152604092839020835160e08101855281546001600160a01b031681526001820154928101929092529182015492810192909252600381015460ff16606083015260048101805460808401919061033a9061141d565b80601f01602080910402602001604051908101604052809291908181526020018280546103669061141d565b80156103b35780601f10610388576101008083540402835291602001916103b3565b820191906000526020600020905b81548152906001019060200180831161039657829003601f168201915b5050509183525050600582015460209091019060ff1660038111156103da576103da611105565b60038111156103eb576103eb611105565b81526020016006820154815250509050919050565b600061040a610fff565b600160008381526002602052604090206005015460ff16600381111561043257610432611105565b146104755760405162461bcd60e51b815260206004820152600e60248201526d149194481b9bdd0818db1bdcd95960921b60448201526064015b60405180910390fd5b6000828152600260205260409020546001600160a01b031633146104db5760405162461bcd60e51b815260206004820152601960248201527f4f6e6c7920626f72726f7765722063616e206578656375746500000000000000604482015260640161046c565b6000828152600460209081526040808320546003909252822080549192918390811061050957610509611457565b600091825260208083206040805160c08101825260059490940290910180546001600160a01b038082168652600160a01b90910461ffff1685850152600180830154868501526002808401546060808901919091526003808601546080808b019190915260049687015460ff908116151560a08c01528f8c52848a52888c20895160e081018b52815490981688529586015499870199909952928401549685019690965294820154909516938201939093529082018054949650909391928401916105d39061141d565b80601f01602080910402602001604051908101604052809291908181526020018280546105ff9061141d565b801561064c5780601f106106215761010080835404028352916020019161064c565b820191906000526020600020905b81548152906001019060200180831161062f57829003601f168201915b5050509183525050600582015460209091019060ff16600381111561067357610673611105565b600381111561068457610684611105565b815260069182015460209182015290548251855160408088015194880151908601519596506001600160a01b03909316946000948694630d7774e99493926106cc9042611483565b6040516001600160e01b031960e088901b1681526001600160a01b039586166004820152949093166024850152604484019190915261ffff166064830152608482015260a4016020604051808303816000875af1158015610731573d6000803e3d6000fd5b505050506040513d601f19601f82011682018060405250810190610755919061149c565b600088815260026020818152604092839020600501805460ff1916909217909155905182815291925088917f8686c8ad20b0b796ad4daef68fe247b9243ed02b0a9abff56d30341f410e34f7910160405180910390a29450505050506107ba60018055565b919050565b6107c7611029565b6107d16000611056565b565b6000818152600260205260409020546001600160a01b031633146108395760405162461bcd60e51b815260206004820152601860248201527f4f6e6c7920626f72726f7765722063616e2063616e63656c0000000000000000604482015260640161046c565b60008181526002602052604081206005015460ff16600381111561085f5761085f611105565b1461087c5760405162461bcd60e51b815260040161046c906114b5565b6000908152600260205260409020600501805460ff19166003179055565b60008281526002602052604081206005015460ff1660038111156108c0576108c0611105565b146108dd5760405162461bcd60e51b815260040161046c906114b5565b6000828152600260205260409020546001600160a01b031633146109435760405162461bcd60e51b815260206004820152601860248201527f4f6e6c7920626f72726f7765722063616e206163636570740000000000000000604482015260640161046c565b60008281526003602052604090205481106109965760405162461bcd60e51b8152602060048201526013602482015272092dcecc2d8d2c840e2eadee8ca40d2dcc8caf606b1b604482015260640161046c565b60008281526003602052604090208054829081106109b6576109b6611457565b600091825260209091206004600590920201015460ff1615610a135760405162461bcd60e51b8152602060048201526016602482015275145d5bdd1948185b1c9958591e481858d8d95c1d195960521b604482015260640161046c565b600082815260036020526040902080546001919083908110610a3757610a37611457565b60009182526020808320600460059384029091018101805495151560ff1996871617905586845281526040808420869055600282528084209092018054909416600117909355600390925220805482908110610a9557610a95611457565b6000918252602091829020600590910201546040518381526001600160a01b039091169184917f2e8ea29bd78fe9545a254f1d9369b4d02dafac8b28a3aa257c9f58f492a16420910160405180910390a35050565b6002602081905260009182526040909120805460018201549282015460038301546004840180546001600160a01b039094169594929360ff9092169291610b309061141d565b80601f0160208091040260200160405190810160405280929190818152602001828054610b5c9061141d565b8015610ba95780601f10610b7e57610100808354040283529160200191610ba9565b820191906000526020600020905b815481529060010190602001808311610b8c57829003601f168201915b505050506005830154600690930154919260ff1691905087565b60036020528160005260406000208181548110610bdf57600080fd5b6000918252602090912060059091020180546001820154600283015460038401546004909401546001600160a01b0384169650600160a01b90930461ffff1694509092909160ff1686565b6005805460009182919082610c3e836114db565b909155506040805160e0810182523381526020810189905290810187905260ff861660608201526080810185905290915060a08101600081524260209182015260008381526002808352604091829020845181546001600160a01b0319166001600160a01b039091161781559284015160018401559083015190820155606082015160038201805460ff191660ff90921691909117905560808201516004820190610ce99082611545565b5060a082015160058201805460ff19166001836003811115610d0d57610d0d611105565b021790555060c091909101516006909101556040805187815260208101879052339183917f282a058e462fcadb0d3a9f74d3c81c7033c74456bf6e79c1ee9e952055145a28910160405180910390a395945050505050565b606060036000838152602001908152602001600020805480602002602001604051908101604052809291908181526020016000905b82821015610e175760008481526020908190206040805160c0810182526005860290920180546001600160a01b0381168452600160a01b900461ffff16838501526001808201549284019290925260028101546060840152600381015460808401526004015460ff16151560a08301529083529092019101610d9a565b505050509050919050565b60008481526002602052604081206005015460ff166003811115610e4857610e48611105565b14610e655760405162461bcd60e51b815260040161046c906114b5565b600084815260026020526040902054336001600160a01b0390911603610ec45760405162461bcd60e51b815260206004820152601460248201527343616e6e6f742071756f7465206f776e2052465160601b604482015260640161046c565b6000848152600360208181526040808420815160c0810183523380825261ffff8a81168387018181528487018c8152606086018c8152426080880190815260a088018d8152895460018082018c559a8f529d8c902098516005909e0290980180549451909616600160a01b026001600160b01b03199094166001600160a01b03909d169c909c17929092178455519583019590955593516002820155965195870195909555516004909501805495151560ff19909616959095179094558051938452908301859052909186917fc85b2d8752f6e690a2aa22756ec482f45af03607781e297388153089bd2eb437910160405180910390a350505050565b610fc9611029565b6001600160a01b038116610ff357604051631e4fbdf760e01b81526000600482015260240161046c565b610ffc81611056565b50565b60026001540361102257604051633ee5aeb560e01b815260040160405180910390fd5b6002600155565b6000546001600160a01b031633146107d15760405163118cdaa760e01b815233600482015260240161046c565b600080546001600160a01b038381166001600160a01b0319831681178455604051919092169283917f8be0079c531659141344cd1fd0a4f28419497f9722a3daafe3b4186f6b6457e09190a35050565b6000602082840312156110b857600080fd5b5035919050565b6000815180845260005b818110156110e5576020818501810151868301820152016110c9565b506000602082860101526020601f19601f83011685010191505092915050565b634e487b7160e01b600052602160045260246000fd5b6004811061113957634e487b7160e01b600052602160045260246000fd5b9052565b6020815260018060a01b038251166020820152602082015160408201526040820151606082015260ff60608301511660808201526000608083015160e060a084015261118d6101008401826110bf565b905060a08401516111a160c085018261111b565b5060c084015160e08401528091505092915050565b600080604083850312156111c957600080fd5b50508035926020909101359150565b60018060a01b038816815286602082015285604082015260ff8516606082015260e06080820152600061120e60e08301866110bf565b905061121d60a083018561111b565b8260c083015298975050505050505050565b634e487b7160e01b600052604160045260246000fd5b6000806000806080858703121561125b57600080fd5b8435935060208501359250604085013560ff8116811461127a57600080fd5b9150606085013567ffffffffffffffff8082111561129757600080fd5b818701915087601f8301126112ab57600080fd5b8135818111156112bd576112bd61122f565b604051601f8201601f19908116603f011681019083821181831017156112e5576112e561122f565b816040528281528a60208487010111156112fe57600080fd5b82602086016020830137600060208483010152809550505050505092959194509250565b602080825282518282018190526000919060409081850190868401855b8281101561139c57815180516001600160a01b031685528681015161ffff16878601528581015186860152606080820151908601526080808201519086015260a09081015115159085015260c0909301929085019060010161133f565b5091979650505050505050565b600080600080608085870312156113bf57600080fd5b84359350602085013561ffff811681146113d857600080fd5b93969395505050506040820135916060013590565b6000602082840312156113ff57600080fd5b81356001600160a01b038116811461141657600080fd5b9392505050565b600181811c9082168061143157607f821691505b60208210810361145157634e487b7160e01b600052602260045260246000fd5b50919050565b634e487b7160e01b600052603260045260246000fd5b634e487b7160e01b600052601160045260246000fd5b808201808211156114965761149661146d565b92915050565b6000602082840312156114ae57600080fd5b5051919050565b6020808252600c908201526b292328903737ba1037b832b760a11b604082015260600190565b6000600182016114ed576114ed61146d565b5060010190565b601f821115611540576000816000526020600020601f850160051c8101602086101561151d5750805b601f850160051c820191505b8181101561153c57828155600101611529565b5050505b505050565b815167ffffffffffffffff81111561155f5761155f61122f565b6115738161156d845461141d565b846114f4565b602080601f8311600181146115a857600084156115905750858301515b600019600386901b1c1916600185901b17855561153c565b600085815260208120601f198616915b828110156115d7578886015182559484019460019091019084016115b8565b50858210156115f55787850151600019600388901b60f8161c191681555b5050505050600190811b0190555056fea264697066735822122098273125838a9cffdab5663bb6598c33b8efc43edec4a4a063f9450ce3b49afa64736f6c63430008180033",
  "linkReferences": {},
  "deployedLinkReferences": {}
}